:020000040000FA
:10000000002A00204D0300005503000057030000A4
:10001000590300005B0300005D03000000000000C6
:100020000000000000000000000000005F0300006E
:10003000610300000000000063030000650300008E
:1000400067030000670300008D09000041060000FF
:100050006703000067030000050400006703000059
:1000600067030000670300006703000067030000E8
:1000700067030000670300006703000067030000D8
:1000800067030000BD050000670300006703000070
:100090008D0600006703000067030000670300008F
:1000A00067030000670300006703000067030000A8
:1000B000670300006703000000000000000000006C
:1000C0006703000067030000670300006703000088
:1000D00067030000670300006703000000000000E2
:1000E0000000000000000000000000000000000010
:1000F0000000000000000000000000000000000000
:1001000000000000000000000000000000000000EF
:1001100000000000000000000000000000000000DF
:1001200000000000000000000000000000000000CF
:1001300000000000000000000000000000000000BF
:1001400000000000000000000000000000000000AF
:10015000000000000000000000000000000000009F
:10016000000000000000000000000000000000008F
:10017000000000000000000000000000000000007F
:10018000000000000000000000000000000000006F
:10019000000000000000000000000000000000005F
:1001A000000000000000000000000000000000004F
:1001B000000000000000000000000000000000003F
:1001C000000000000000000000000000000000002F
:1001D000000000000000000000000000000000001F
:1001E000000000000000000000000000000000000F
:1001F00000000000000000000000000000000000FF
:10020000DFF80CD000F0ECF800480047D90F0000F0
:10021000002A002030B4044654E8000F0D4644E89C
:100220000053002BF8D1156030BC704730B4044641
:1002300054E8000F40EA010544E80053002BF7D1D1
:10024000156030BC704730B4044654E8000F00EA33
:10025000010544E80053002BF7D1156030BC70470E
:1002600030B4044654E8000F80EA010544E8005326
:10027000002BF7D1156030BC704730B4044654E809
:10028000000F00EB010544E80053002BF7D1156087
:1002900030BC704730B4044654E8000FA0EB0105B1
:1002A00044E80053002BF7D1156030BC70470000C4
:1002B00030B4044654E8000F0D4644E80053002BC8
:1002C000F8D1156030BC704730B4044654E8000FD4
:1002D00040EA010544E80053002BF7D1156030BC1B
:1002E000704730B4044654E8000F00EA010544E8C2
:1002F0000053002BF7D1156030BC704730B4044672
:1003000054E8000F80EA010544E80053002BF7D1C0
:10031000156030BC704730B4044654E8000F00EB61
:10032000010544E80053002BF7D1156030BC70473D
:1003300030B4044654E8000FA0EB010544E8005334
:10034000002BF7D1156030BC70470000064880478D
:1003500006480047FEE7FEE7FEE7FEE7FEE7FEE7AA
:10036000FEE7FEE7FEE7FEE791060000010200005F
:10037000004870479427000040EA01039B0703D020
:1003800009E008C9121F08C0042AFAD203E011F8D4
:10039000013B00F8013B521EF9D27047D2B201E096
:1003A00000F8012B491EFBD270470022F6E710B57A
:1003B00013460A4604461946FFF7F0FF204610BDD3
:1003C000421C10F8011B0029FBD1801A704703461C
:1003D00011F8012B00F8012B002AF9D118467047BB
:1003E000064C074D06E0E06840F0010394E8070082
:1003F00098471034AC42F6D3FFF706FF20280000E0
:10040000402800002DE9F04700268CB0DFF860910D
:10041000B0464FF48075012437460696284601F011
:10042000D1F838B1D9F80403204203D0284601F0AE
:10043000BFF826432D1D64007F1CADB2082FEDD3FD
:100440004FF4BE74204601F0BDF848B1204601F0DB
:10045000AFF846F0004606AA0121002001F094F80A
:10046000444D16F0FF0F15D00127002437420DD060
:1004700009EB8401D1F81005D1F81015C0F3042060
:1004800055F82420C1F3014102B190477F00641C5C
:10049000082CEBD3002E67DA4FF0FF30CDE908804F
:1004A00000263446281910F8507F90F9000027F0F4
:1004B000C008401C44D009A9404600F05CFE58B377
:1004C0004FEA9719404600F0D5FB55F820701FB150
:1004D000B9F1030F03D00FE0B9F1030F30D108A831
:1004E0004FEAD80208F00703815C4FF0010C0CFAC8
:1004F00003FC41EA0C0181544FF0A04101EB88005C
:10050000D0F8000706A9C0F3014A404600F033FEC8
:1005100018B1BAF1020F03D012E0BAF1030F0FD1F4
:10052000B9F1030F08D1BAF1020F1BD002214046E6
:1005300000F0EAFF761CF6B217B149464046B847CC
:10054000641C042CAED3002E0ED06A46012100207C
:1005500001F01AF806990098884205D0069008988C
:1005600009909DE70321E2E70CB0BDE8F0870000A9
:1005700000600040AC00002000F01F02012191400B
:100580004009800000F1E020C0F88012704700F0C0
:100590001F02012191404009800000F1E020C0F8D5
:1005A0000011704700F01F020121914040098000B6
:1005B00000F1E020C0F80012704700000748002159
:1005C000C0F84011C0F84411C0F84811C0F84C11EF
:1005D000C0F80011C0F8041101F0FCBD001001408A
:1005E00000F0E2B970B50E46144900EB400001EB93
:1005F000C0051446E86A183520B101280FD002283A
:1006000005D113E0284600F003FAA04201D20024ED
:1006100011E022463146284600F032FA0BE0284627
:1006200000F0F6F9A042F4D20446F2E7314628463B
:1006300000F0F9F90446204670BD00007407002060
:10064000F8B511480F4D04464FF48C7101F0F4FADF
:10065000002815D00026C4F81861D4F818010090BD
:10066000A87F2C46FF2801D000F06DFF6677267228
:10067000D4E9002101B004F10800BDE8F0401047C2
:10068000F8BD0000040100200030004001F014BD5E
:10069000F0B5AE480023021D01780125101D4FF072
:1006A000805406290BD11678360708D10678C6F390
:1006B0000316032E06D0042E04D0052E02D00629E0
:1006C00007D00EE0B4F82463A14FC6F304263E60C1
:1006D00002E01678360704D10678C6F30316032E17
:1006E00002D0062904D00FE09B4F9A4E7E670EE0A1
:1006F0001678360708D10678C6F30316032E06D0FF
:10070000042E04D0052E02D0062907D00EE0D4F81E
:100710004462924FC6F342363E6002E016783607D6
:1007200004D10678C6F30316032E02D0062906D09C
:1007300011E08B4E376827F0807737600EE016782F
:10074000360708D10678C6F30316032E06D0042E0A
:1007500004D0052E02D006290AD011E04FF08046C1
:10076000C6F80C31C6F810317C4E361F336002E0FB
:100770001678360704D10678C6F30316032E02D086
:10078000062905D00CE0754F032664373E600AE069
:100790001678360704D10678C6F30316032E02D066
:1007A00006290DD014E06F4F05263E606D4E783659
:1007B00035606C4E083633603F263F1D3E6002E0D8
:1007C0001678360704D10678C6F30316052E02D034
:1007D000062957D062E0644E3668644F3E60624E30
:1007E000361D36683F1D3E605F4E083636683F1D39
:1007F0003E605D4E0C3636683F1D3E605A4E1036E8
:1008000036683F1D3E60584E143636683F1D3E60C8
:10081000554E18363668554F20373E60524E1C36BE
:1008200036683F1D3E60504E203636683F1D3E60A4
:100830004D4E243636683F1D3E604B4E2836366896
:100840003F1D3E60484E2C3636683F1D3E60464E8A
:1008500030363668454F40373E60434E3436366852
:100860003F1D3E60404E383636683F1D3E603E4E6E
:100870003C3636683F1D3E603B4E403636683F1D75
:100880003E6002E01678360708D10678C6F30316F4
:10089000032E06D0042E04D0052E02D0062907D040
:1008A00019E0D4F85812324A01F04F01116002E009
:1008B000117809070FD10078C0F30310032803D083
:1008C000042801D0052806D12A480168C90702D0AA
:1008D0006FF00101016022487438016841F4700131
:1008E0000160BFF34F8FBFF36F8F4FF01021D1F82E
:1008F0000002002803DBD1F80402002822DA1E4A95
:1009000015601E480468002CFCD01524C1F8004274
:100910000568002DFCD0C1F8044201680029FCD014
:10092000136001680029FCD0BFF34F8F0C48F038EA
:100930000168134A01F4E06111430160BFF34F8F76
:1009400000BFFDE710490F480860F0BDE00F00F060
:10095000403501400DF0ADBA00C007403C050040F5
:10096000FCED00E0105600400404001020C50040DB
:10097000E40E00400004004004E5014000E40140B2
:100980000400FA050090D0036C0000200448017FA9
:1009900004480029024901D001F003BD01F072BCF6
:1009A000280100200020004010B5124C02202061D8
:1009B000606111A0A06104F17800E0614FF4007063
:1009C00020620020A06260620BA1A164E06204F5D5
:1009D0001E71E1641021A065C4E91410E06509A14D
:1009E000E01DFFF7F4FC08A12046FFF7F0FC2020F3
:1009F000A07110BD740700205465726D696E616C42
:100A0000000000005254540053454747455200002F
:100A10000269C1688A4203D88068401A104400E025
:100A2000501A401E70472DE9F047C46817468946A2
:100A300006464FF000083069A04201D9051B02E0CC
:100A4000B168201A0D1AB0686D1E001BA84200D8AC
:100A50000546BD4200D33D4670682A4620444946BB
:100A6000FFF78AFCB0687F1B2C44A844A944A0422D
:100A700000D10024F460002FDDD14046BDE8F087AE
:100A80002DE9F04104468846D4E90207C51BE16818
:100A9000606816460844B54206D94146FFF76CFC2B
:100AA000B819E060BDE8F0812A464146FFF764FCD2
:100AB000761B08EB050132466068FFF75DFCE660D7
:100AC000F0E702E008C8121F08C1002AFAD17047F7
:100AD0007047002001E001C1121F002AFBD17047BE
:100AE00000F0CCFF00F03AFE0028FBD1104C0121B1
:100AF000208801EB00400FA100F018FF10480068AB
:100B0000C00700D000BE2088022101EB00400DA1EB
:100B100000F00CFFBFF34F8F0948E43801680D4A1D
:100B200001F4E06111430160BFF34F8F00BFFDE7A7
:100B3000A0000020466174616C206572726F7200C3
:100B4000F0ED00E053797374656D20726573657420
:100B5000000000000400FA050EB500210091CDE967
:100B600001106A4644F20100FFF7BAFF0EBD00F023
:100B700003B800F009B8000072B602480168491CC9
:100B8000016070471400002003490868401E086097
:100B900000D162B670470000140000200249085CD2
:100BA000012100F0E5BC0000D42600007CB5002443
:100BB000084E25460122305D00950023114601951F
:100BC00000F074FC641C042CF4D3BDE87C4000F0FD
:100BD00003B80000D426000010B500242046FFF71B
:100BE000DDFF641C042CF9D310BD00002DE9F04199
:100BF000861C0C4601270020FFF7B9FF0F4801684B
:100C00002160D0E90012891A82680446511AB51C85
:100C100007E000BF00F096F9D4E90001401AA1688E
:100C2000091A491C8D42F5D8206830442060002004
:100C3000FFF79FFF3846BDE8F08100005403002015
:100C400030B482680468531C8360A154D0E9011257
:100C50008A4202D330BC00F030BB30BC7047000089
:100C6000034803C8814201D101207047002070472A
:100C7000540300200249084490F9300070470000F6
:100C8000AC0000202DE9F05F26484168F1B3DFF8A1
:100C900098B00E688146DBF8004087688078E11BD9
:100CA00021F07F45ED1CB0B9DFF880804FF4803033
:100CB000C8F84403C8F804031120FFF75DFC1120B5
:100CC000FFF765FC4FF0010AC8F800A02F2000F0E4
:100CD0005BFA89F802A0B54200D23546124BE819FA
:100CE0003C3320F07F401860DBF800105A46091BA7
:100CF00021F07F41001B20F07F40C91C81420FD9A9
:100D0000106818602F2000F03FFA00E004E0BDE812
:100D1000F05F1120FFF746BCBDE8F05F01F0B4B80A
:100D2000BDE8F09F000000200415014000100140C4
:100D30000E4910B50A784C780023A24212D0521CFA
:100D4000D2B20A70022A00D10B70084A0B780C321A
:100D500052F8232002608868104420F07F408860A9
:100D6000012010BD0360002010BD00000000002025
:100D70001CB5062000F0D9FB062000F0BBFB0520C7
:100D800000F0E8FB052000F0B5FB072000F0B2FB07
:100D90000023082000931A461946019300F098FB9F
:100DA0001CBD00002DE9FC5F0E008346DDE90C4709
:100DB000C6F1000098469246814600D408460125B7
:100DC00003E000BF90FBFAF06D1C5045FADAA8452D
:100DD00000D9454624B1002E01DB780700D5641EFA
:100DE000B80702D5B8F1000F0AD0F80708D13CB116
:100DF000A54205D220215846641EFFF721FFF6E7E1
:100E0000002E02DA4E462D2102E0780703D52B2171
:100E10005846FFF715FF07F0030002280BD1B8F181
:100E2000000F08D13CB1A54205D230215846641EBE
:100E3000FFF706FFF6E7CDE9004743465246314645
:100E4000584601F027FBBDE8FC9F00002DE9F04764
:100E5000394E002780463D46DFF8E090D6F804A0E2
:100E600057E003D00446D0F81C8035E099F8002004
:100E700002EB4201521CD2B289F8002009EBC101F9
:100E800099F80230091D9A4201D189F8005048684A
:100E90000A780446012A12D0022A02D0032A3BD142
:100EA00008E001F067F900B10127257434E005740A
:100EB000C06900E070680028F9D170602CE0207CE7
:100EC00050BB88686060C868A0600869E0604869D5
:100ED000A061F07800B165606268B168184B501A83
:100EE00020F07F40984202D2A168084406E0881AA8
:100EF000A16820F07F40814202D9081A206000E0FA
:100F0000256065600120A56020742046E56101F040
:100F100013F9B8F10000A4D199F8001099F8010074
:100F20008142A3D117B97168514502D00120BDE8B3
:100F3000F0870020FBE700000000002048010020AF
:100F4000FFFF7F0070B588B0214800F0C1F820484D
:100F5000001F064600F0BCF81E4DD5E9014105E032
:100F6000C0F3891202EB9050641C044404EA0100AF
:100F700005EB8000C0688207F2D000200DF1080266
:100F800004EA010305EB8303641CDB6842F82030AC
:100F9000401C0228F4D3029800F00300012808D076
:100FA00002280AD10298032101EB905004EB90042F
:100FB00003E00298C0F3831004443046002101AAE4
:100FC000FFF78FF9002800D06C6008B070BD0000FA
:100FD0006C07002054030020FFF7E8FDFFF7C8FE70
:100FE000002000F005FD08B1FFF7B6FD00F0A8FBFA
:100FF00007480321008801EB004006A100F096FCA1
:1010000000F0ACFB0028FBD100F0FAFFFEE7000087
:10101000A0000020535049206578616D706C652EEA
:10102000000000002DE9F047C7880446181D164649
:101030008946B0FBF7F1B0FBF7F207FB12009A19F3
:101040003A44D21CB2FBF7F2DDF820A001E024689C
:10105000491E0029FBD13D1A8846B54216D818E032
:10106000BAF1000F05D0211809EB08002A46091D26
:1010700004E0204409EB08012A46001DFFF77CF933
:1010800000202468761BA844B74201D9354600E009
:101090003D46002EE4D1BDE8F087000030B50246A1
:1010A00069B100F0D3FC0021084C0BE001EB4103D7
:1010B00004EB830315685B88AB4202D1116000200A
:1010C00030BD491C8142F1D3052030BD70000020A5
:1010D00008B501216A46FFF7F7F8009808BD70B51A
:1010E000044600252846FFF742FD2168626808682B
:1010F00090420ED9401E08600178238AE26801FB05
:101100000325227A2168101AC0B20A79824200D2DD
:1011100008710020FFF72DFD284670BD70B505460B
:101120000C460020FFF723FDE868298A201AB0FB4F
:10113000F1F12A681068431C13600170BDE870402B
:101140000020FFF716BD10B530B1017A4268036880
:10115000891AC9B21A6006E00E2010BD03681A6829
:10116000541C1C601170491EC9B2F7D200680021DE
:101170000171084610BDC20800F007030120895C18
:10118000984008407047000000283ED01F49204A80
:10119000096800BF00BF00BF00BF00BF00BF00BFA5
:1011A00000BF91422FD000BF00BF00BF00BF00BFF3
:1011B00000BF00BF00BF00BF00BF00BF00BF00BF37
:1011C00000BF00BF00BF00BF00BF00BF00BF00BF27
:1011D00000BF00BF00BF00BF00BF00BF00BF00BF17
:1011E00000BF00BF00BF00BF00BF00BF00BF00BF07
:1011F00000BF00BF00BF00BF00BF00BF00BF00BFF7
:1012000000BF00BF00BF0138C3D170476C00002091
:101210000024F40000283ED01F49204A096800BF7E
:1012200000BF00BF00BF00BF00BF00BF00BF9142B2
:101230002FD000BF00BF00BF00BF00BF00BF00BF76
:1012400000BF00BF00BF00BF00BF00BF00BF00BFA6
:1012500000BF00BF00BF00BF00BF00BF00BF00BF96
:1012600000BF00BF00BF00BF00BF00BF00BF00BF86
:1012700000BF00BF00BF00BF00BF00BF00BF00BF76
:1012800000BF00BF00BF00BF00BF00BF00BF00BF66
:1012900000BF0138C3D170476C0000200024F40067
:1012A0000FB408B50399002904D004AA00926A4635
:1012B00000F00FF801B05DF814FB10B58268044629
:1012C000002A05D0D4E90403216898470020A060D3
:1012D00010BD2DE9FC4791460C00804676D014F8ED
:1012E000011B39B125290ED04046FFF7A9FC207813
:1012F0000028F4D198F80C00002867D04046BDE8DB
:10130000FC47FFF7DABF0020012221782B291BD0F0
:101310002D2902D0302908D102E040F0010001E07F
:1013200040F00200641C002AEFD100252A290ED0CB
:101330002178A1F130020A2A11D205EB850201EBD6
:101340004205641C303DF1E740F00400EAE7D9F8BB
:1013500000100B1DC9F800300968641C0D44217889
:1013600000232E290BD114F8011FA1F130020A2A03
:1013700005D203EB830201EB4203303BF3E76C2918
:101380000DD068290BD0692921D00BDC252918D074
:10139000582931D063290ED0642915D117E014F8EB
:1013A000011FECE7702969D0732932D075291BD051
:1013B000782909D120E0D9F80000011DC9F80010F2
:1013C00001784046FFF73CFC641C90E76CE0D9F8DC
:1013D00000100A1DC9F800200968CDE900500A2252
:1013E0004046FFF7DFFCEFE7D9F800100A1DC9F807
:1013F000002009680A2206E0D9F800100A1DC9F881
:10140000002009681022CDE90050404601F042F862
:10141000DAE7D9F8001000270A1DC9F800200E6885
:10142000C00705D112E04046761C7F1CFFF708FC80
:1014300031780029F7D104E0202140466D1EFFF7E6
:10144000FFFBBD42C0D9002DF6D1BDE74EB13046FD
:10145000FEF7B6FF074604E0202140466D1EFFF769
:10146000EFFBBD4206D9002DF6D103E04046761CC5
:10147000FFF7E6FB31780029F8D1A5E7D9F800009D
:10148000011DC9F80010056830214046FFF7D8FB60
:1014900078214046FFF7D4FB08200021CDE9000168
:1014A000034610222946B0E7BDE8FC8770B541EA43
:1014B0004201DDE904564FF0A04441EA830141EACC
:1014C000052104EB800041EA0641C0F8001770BD19
:1014D00070B541EA4201DDE904564FF0A04441EA0B
:1014E000830141EA052104EB800041EA0641C0F88E
:1014F000001770BD1CB5002100910B46012201911F
:101500001146FFF7E5FF1CBD4FF0A04202EB800043
:10151000D0F8002722F44032C0F80027D0F8002786
:1015200042EA0141C0F8001770474FF0A042012184
:101530008140C2F80C1570474FF0A0420121814054
:10154000C2F80C1570474FF0A04201218140C2F84B
:10155000081570474FF0A04201218140C2F80815DC
:1015600070474FF0A04201218140C2F80815704732
:1015700001224FF0A043824011B1C3F80825704703
:10158000C3F80C257047000018B5084B6C460144A1
:101590001B68009306E000BF54F82030D3F81035E4
:1015A000401C08C28142F7D818BD0000DC260000AC
:1015B000034908B50844002101600068009008BD97
:1015C0000060004002494058012800D000207047C8
:1015D0000060004030B5124B01460020D3F81044A3
:1015E000224609E0157A854205D1401C0A28F7DB1E
:1015F0004FF0FF3030BD5268002AF3D1421CF9D0C1
:101600000872D3F810242AB152684A60D3F8102423
:10161000516030BD0022C3F810144A6030BD000094
:10162000540300207047FEF7DBBF704708B5034A3C
:1016300000924023024A00F005F808BD0F1F000089
:1016400054020020F0B595B01C4615460F460846DA
:101650001A9E00F0CBFA182109A8FEF7A6FE0E96F6
:10166000CDE909540023082203A9384600F0D8FA2E
:10167000059806900498ADF81C0000208DF8200015
:101680000398082600F00300012802D002281DD08C
:101690003CE003983346850AC0F3C2008DF81E0073
:1016A00003980FA9C0F380008DF81F000398C0F3C2
:1016B0008314A200384600F0B3FA09A8009006ABE4
:1016C00022460FA9284600F0EDF91FE00398840D8B
:1016D000C0F3C2008DF81E000398C0F380008DF89F
:1016E0001F00082C01D2254600E0082533462A4673
:1016F0000FA9384600F094FA2E44641B09AB06AAE1
:1017000029460FA800F01EF9002CEAD1384600F057
:1017100076FA15B0F0BD0000084A012902EBC000BE
:1017200005D0022903D0032903D0042903D00020C7
:1017300070470079704740797047000040280000EA
:1017400010B5FFF770FF04210348FFF743FF02497C
:101750000120487210BD0000180000202DE9FE4F46
:10176000FFF77EFA10B10020BDE8FE8F6D48002122
:10177000C0F81814BFF34F8FD0E9014604EA060100
:1017800000EB81014FF000090AE000BFC1F38912AC
:1017900002EB9151641C0C4404EA060100EB810148
:1017A000C9688A07F2D000216A46804604EA060327
:1017B00008EB8300641CC06842F82100491C022920
:1017C000F4D3009800F00300022802D001284DD085
:1017D000A2E000985022810D8A46B2EB905F00D8BB
:1017E00050210D4665F39F50009008314E4800F09F
:1017F000B4F9070077D000F0F9F94B4608226946A2
:10180000384600F013FA04EA0600311A8900091D6F
:1018100009F1080B8D4222D9424E0C3631B1CAB2C1
:1018200008EB8000691A91460C3004E03046EAB2B9
:10183000002691463146CDB201465B46384600F05F
:10184000F5F90BEB09032EB12A4631464FEA0700A2
:1018500000F0ECF90AF1030004EB90043AE008EB25
:1018600080015B462A4638460C31F1E70098C0F308
:101870008310062800D30620009960F38911C1F374
:101880008310801C00918100274800F066F9070052
:1018900042D000F0ABF94B4608226946384600F0CA
:1018A000C5F909F1080900250EE000BF04EA0600A9
:1018B00008EB80014B46042238460C31641C00F0D2
:1018C000B5F909F104096D1C0098C0F38310A84212
:1018D000ECD847B1D8F81054D8F81804464660B18F
:1018E000384600F08CF917E0687A012804D12A689C
:1018F00028463946126890476D68002DF4D1384665
:1019000000F07DF90020FFF732F9D6F8180400B98D
:1019100074600020FFF72DF9FFF7A2F980F00100B5
:1019200022E7000054030020FC26000000231A4692
:1019300000F01CBB08B5012300926A4600F016FBBC
:1019400008BD00002DE9F0470E4680461C46924631
:1019500008293ED894F80C900020207319461046B0
:1019600000F0C2F90025B54206D218F805201AA1E8
:101970002046FFF795FC03E019A12046FFF790FCF5
:101980006D1C082DEFD317A12046FFF789FC002519
:10199000B54210D218F80570FEF7EAFC0068C05D89
:1019A00010F03E0F01D03A4600E02E220EA1204654
:1019B000FFF776FC03E00DA12046FFF771FC6D1CDC
:1019C000082DE5D301222146504600F06FF984F836
:1019D0000C90BDE8F0870000202530327800000030
:1019E000202020007C000000256300002000000073
:1019F000114810B5FF218160002101604160C0F8ED
:101A00001814C0F8141480F81C140C4800F0F5F8F1
:101A100000280FD10A480B490B4B401AC10800207F
:101A200005E000BF00EB400223F82200401C884282
:101A3000F8D3002010BD000054030020FC26000055
:101A40006828000040280000700000200248034978
:101A5000401AC008704700006828000040280000B5
:101A600013B56846FFF71AFB08B100201CBD0248F9
:101A7000009950F831001CBD4028000070B508489E
:101A80000125D0F8104480F81C5405E065722168E7
:101A90002046496888476468002CF7D170BD000073
:101AA000540300202DE9FF4781460C9D00200C4681
:101AB0002F7B2873984616462946184600F014F9DD
:101AC000072E42D2DFE806F004090F161F2A36005F
:101AD00049462846FFF7E4FB37E049462846226896
:101AE000FFF7DEFB31E0D4E9002349462846FFF743
:101AF000D7FB2AE0A0680090D4E900234946284695
:101B0000FFF7CEFB21E0D4E90201CDE90001D4E9E1
:101B1000002349462846FFF7C3FB16E004F10800FE
:101B200007C88DE80700D4E9002349462846FFF797
:101B3000B7FB0AE004F108000FC88DE80F00D4E9F4
:101B4000002349462846FFF7ABFB002229464046C2
:101B500000F0ACF82F73BDE8FF872DE9F041058A4E
:101B600080462D1F4819C01CB0FBF5F0C6B2404698
:101B7000FFF7B5FA041E19D0002020710120607112
:101B8000E58000272546761EC4F800800BE040461D
:101B9000FFF7A5FA60B16179491C617128600546BB
:101BA0007F1CC0F80080B742F1D32046BDE8F08129
:101BB000204600F002F80020F8E72DE9F0414579D1
:101BC00001466B1E002201E00968521C9A42FBD3B9
:101BD0000F680146002605E038460C68FFF79EFABC
:101BE0002146761CAE42F7D3BDE8F08108B501214D
:101BF0006A46001DFEF741FB08BDFFF7A4BA38B5E1
:101C00000446001D01216A46FEF744FB009810F0CF
:101C1000FF0F04D12046BDE83840FFF7CEBF38BDE6
:101C200038B501240094FFF7FDF938BD38B500241C
:101C30000094FFF7F7F938BD4058002800D0012084
:101C400070474058002800D00120704708B5002296
:101C500042504058009008BDD0F80403084000D01E
:101C6000012070474058002800D00120704708B577
:101C7000002242504058009008BD000008B50AA15B
:101C800009680091C1098DF8011040008DF802002B
:101C90000520FFF751FC0421684600F0F1FC052007
:101CA000FFF75FFC002008BD5300000010B50C4694
:101CB000C17949B11AB109A12046FFF7F1FA2046CE
:101CC000BDE81040FFF7F9BA007A0028F3D00448C5
:101CD00004A102682046FFF7E3FAECE70D0A0000D2
:101CE000480000202573000070B50446C0790D46F9
:101CF00000281CD1207A50B1A179A088FFF70CFDF3
:101D00000B4951F820200BA12846FFF7C9FAA088FB
:101D10000021FFF7A5FE03460549A079143951F8C3
:101D200020202846BDE8704003A1FFF7B9BA70BD76
:101D300048000020257300003C25733E2025733A9F
:101D40002000000038B50D460CA11446096800912A
:101D5000010A8DF802108DF803000520FFF7ECFB57
:101D60000421684600F08CFC2146284600F061F80A
:101D70000520FFF7F6FB002038BD0000D100000071
:101D80002DE9F047894601464FF4847A17465046BC
:101D9000B1FBF0F295B2B1FBF0F20AFB1216C6F5F8
:101DA0008474391BB1FBFAF01FFA80F8BC42284654
:101DB0000AD3FFF763FF00BF00F0BEF80004FBD5B5
:101DC0003A46494630462FE0FFF758FF00F0B4F896
:101DD0000004FBD5224649463046FFF7B3FF0026F4
:101DE00012E06D1CADB22846FFF748FF00F0A4F8E2
:101DF0000004FBD509EB040152460020FFF7A2FFC7
:101E0000761CB6B204F584744645EAD3BC420DD2C2
:101E10006D1CA8B2FFF732FF00F08EF80004FBD56E
:101E20003A1B09EB04010020FFF78CFF0120BDE8FD
:101E3000F0872DE9F0418846054600241EE028552C
:101E400000264FF0A047285D400028550620FFF7E8
:101E500081FB0120FFF7DEF9D7F81005295DC0F3FB
:101E60000020084328550620FFF75FFB0120FFF7FD
:101E7000D1F9761CF6B2082EE5D3641C44454FF028
:101E80000000DCD3BDE8F08170B5012670044FF08E
:101E9000E0210025C1F88001084C4010C4F8480337
:101EA000C4F8080366602F20FFF76EF9A660044CA3
:101EB0002F20A560FFF768F9A57070BD00100140E4
:101EC0000000002070B50546C87D0C4600284FF480
:101ED000847128460AD0FFF7B9FED5F81805627E4E
:101EE000E1688854607E401C607670BDFFF7AEFEEE
:101EF000D5F8180570BD1FB501238DF800308DF899
:101F000008100192D0E90012684690471FBD2DE9E4
:101F1000F04114000F460DD000250A2679192246FB
:101F20000020FEF75FFB0544241A08B9761E01D095
:101F3000002CF3D1BDE8F0811CB50BA00068009027
:101F40000520FFF7F9FA0121684600F099FB02210C
:101F500001A8FFF76EFF0520FFF703FBBDF80400A3
:101F600040BA00B21CBD0000D70000002DE9F843C4
:101F7000224C8846054691461F4669461846A66883
:101F8000FEF734FE88B3009800EA060104EB8102F4
:101F900052F80C1F21F00301491C401C11605FEA3C
:101FA000C56C02D541F0040101E021F0040165F3A4
:101FB000C50167F3891168F39F21116000EA0602E9
:101FC000290C04EB8202401CD160009000200AE042
:101FD000009959F8203001EA060204EB8202491CFC
:101FE000D360401C0091B842F2D394F81C0401E085
:101FF000FFF7B4FB0028FBD1BDE8F88354030020B1
:102000002DE9F043ADF57B7D4FF4837400216E46DE
:102010004FF4FA757154491CA942FBD329467DA897
:10202000FEF7C3F92A466946204600F0C3FA2A465D
:102030007DA92046FFF7A4FE134F00240DF5FA7981
:102040004FF00308315D19F8040081420AD0398845
:10205000224608EB01400DA1FFF76CFCFFF77EFB69
:102060000028FBD1641CAC42ECD3398808EB01405A
:102070000AA1FFF75BFC00BFFFF770FB0028FBD154
:102080000DF57B7DBDE8F083A000002064617461E4
:102090005F256420697320300000000046696E6986
:1020A00073682057726974652D52656164205465A8
:1020B0007374696E670000002DE9F84F1D4C002510
:1020C0006846D4E901A6FEF733FE002738B30023A3
:1020D000009A61681CE0D1F800C00846944503D915
:1020E000ACEB02020A6015E0A2EB0C02634407604D
:1020F000D0F80CC0C1698146BCF1000F08D006EBD6
:10210000030828F07F48C0E9018CC9F81C50054637
:102110000029E0D128466160FEF798FE03E02846DA
:10212000FEF794FE10B15046FEF7ACFDE770BDE837
:10213000F88F0000000000200D4B10B5596831B138
:1021400002680C68A24204D8A21A0A60C1615860F1
:1021500010BD0B4603E00B46C969121B21B10C6888
:102160009442F8D3A41A0C600260C161D86110BD1A
:10217000000000202DE9F041144E77683D462C46C2
:1021800003E0844204D02546E469002CF9D11BE029
:10219000D4B1A5420BD1F869706040B90C49012057
:1021A00088600021B160F0702F20FEF7EDFF2168FC
:1021B000E069E86110B1026811440160706887420B
:1021C00002D00120BDE8F0810020FBE700000020E4
:1021D000001001402DE9F041194D6C68002C2CD005
:1021E000184800270068A968B846401A20F07F46C2
:1021F0002068B0420CD82146361A0744E469087CAE
:1022000020B181F81080886949698847002CEFD196
:1022100029786878814206D1401CC0B268700228D3
:1022200001D185F80180064869780C3040F82170AA
:10223000BDE8F0411420FEF7B5B9BDE8F08100001B
:10224000000000200415014070B50C4605464FF40F
:102250008E71FFF7FBFCA18AA068415CA08A401C3C
:10226000A082C5F81C1570BD1FB500228DF8002096
:102270008DF80810816801918275D0E900126846D6
:1022800090471FBD2DE9FF470C4605464FF40071EE
:10229000FFF7E2FC01274FF40178002618B34FF452
:1022A000927949462846FFF7CCFCE0B149462846DA
:1022B000FFF7CCFCC5F80883A07E00B96F60022050
:1022C0008DF80000D5F88004C5F880040390E07D07
:1022D0008DF80800E0680190E6752676D4E90012D2
:1022E0006846904727E004212846FFF7B5FC10B365
:1022F0004FF484712846FFF7A4FCE0B1214628463C
:10230000FFF7E0FDE07D617E884214D1207E38B188
:10231000617EE268E0752069E0602676667607E017
:10232000A07E00B96F60C5F80883E675617EE2683B
:102330002046FFF7E0FD4FF48E7841462846FFF730
:1023400080FC88B1A08AA17D884204D2214628461B
:10235000FFF77AFF08E041462846FFF777FCA17DAA
:1023600011B12046FFF780FF4FF4A278414628467E
:10237000FFF767FC002812D041462846FFF766FCAD
:10238000A07E00B12F60E07D002808D0E675617E58
:10239000E26804B02046BDE8F047FFF7ACBDBDE8F9
:1023A000FF872DE9FF410C464FF4927705463946E9
:1023B000FFF758FC0026C0B139462846FFF757FC06
:1023C00002208DF80000D5F88004C5F88004039041
:1023D000D5F83C058DF80800E0680190E675267692
:1023E000D4E900126846904724E04FF488773946D4
:1023F0002846FFF737FCE8B139462846FFF737FC97
:10240000D5F83C05C1B2E07D884213D1207E60B191
:10241000E268D5F8000220F02000C5F80002207E16
:10242000E0752069E060267601E0E675E268204606
:10243000FFF761FD4FF4A27739462846FFF712FCFB
:1024400068B139462846FFF712FCE07D38B1E675E1
:10245000D5F83C05E268C1B22046FFF74CFD4FF4C9
:10246000907631462846FFF7FDFB00280FD0314615
:102470002846FFF7FCFBA07D002808D0D5F84C05C6
:1024800004B0C1B22046BDE8F041FFF7EDBEBDE8A3
:10249000FF8100002DE9F05F8346DDE90A4A994695
:1024A00090460D460846012703E000BFB0FBF8F058
:1024B0007F1C4045FAD2B94500D94F465FEACA7041
:1024C00012D18CB15FEA8A7002D5B9F1000F01D048
:1024D000202607E0302605E031465846641EFEF708
:1024E000AFFB0CB1A742F7D35FF00106B9F1010FC2
:1024F00002D9A9F1010903E0B5FBF6F0404502D38A
:1025000006FB08F6F2E7DFF83C9000BFB5FBF6F0FB
:1025100000FB165519F800105846FEF791FBB6FB64
:10252000F8F6002EF2D15FEACA7009D0002C07D06D
:10253000A74205D220215846641EFEF781FBF5E72D
:10254000BDE8F09FE026000038B50D460CA114460A
:1025500009680091010A8DF802108DF8030005202A
:10256000FEF7EAFF0421684600F08AF82146284673
:1025700000F086F80520FEF7F4FF002038BD0000CB
:102580008400000008B50AA109680091C1098DF80E
:10259000011040008DF802000520FEF7CDFF042158
:1025A000684600F06DF80520FEF7DBFF002008BD4F
:1025B000830000002DE9F04788464FF4847A1646E0
:1025C0005146B0FBF1F295B2B0FBF1F20AFB1203F7
:1025D000C3F58474321BB2FBFAF130441FFA81F95F
:1025E000B0F5841F03D94FF0FF30BDE8F087B44247
:1025F0000DD3324641461846FFF7A6FF2846FFF79F
:10260000C1FF00BFFFF798FC0004FBD536E022466F
:1026100041461846FFF798FF2846FFF7B3FF00BF73
:10262000FFF78AFC0004FBD5002713E06D1CADB258
:1026300008EB040152460020FFF786FF2846FFF70B
:10264000A1FF04F5847400BFFFF776FC0004FBD5FE
:102650007F1CBFB24F45E9D3B4420FD26D1CADB25F
:10266000321B08EB04010020FFF76EFF2846FFF73E
:1026700089FF00BFFFF760FC0004FBD50120B4E731
:102680002DE9F0410F46804600251BE018F8056053
:102690000024F1094FF0070019D0FEF75BFF062078
:1026A000FEF758FF0120FEF7B5FD0620FEF73DFFBF
:1026B0000120FEF7AFFD7006641C060EE4B2082C84
:1026C000E7D36D1CBD42E1D30020BDE8F081FEF7E9
:1026D0002CFFE4E7111213140D0E0F100000005030
:1026E0003031323334353637383941424344454648
:1026F0002D1600002B160000251600002C000020CF
:10270000240000202C00002094020020180000006B
:1027100000404040404040404040414141414140F4
:1027200040404040404040404040404040404040A9
:102730004005020202020202020202020202020238
:10274000022020202020202020202002020202023D
:102750000202909090909090101010101010101095
:1027600010101010101010101010101002020202A1
:1027700002028888888888880808080808080808E5
:1027800008080808080808080808080802020202E1
:1027900040000000112700007761726E696E6700CB
:1027A00064656275670000001B5B313B33306D0070
:1027B0001B5B306D000000001B5B313B33316D0053
:1027C0001B5B313B33326D001B5B313B33336D00A0
:1027D0001B5B313B33346D001B5B313B33356D008C
:1027E0001B5B313B33366D001B5B313B33376D0078
:1027F000696E666F000000006572726F7200000003
:102800006770696F74650000737069007561727438
:102810000000000062616C6C6F630000617070000A
:102820006828000000000020AC000000C20A000080
:1028300014290000AC00002054290000D20A000036
:102840000028000000000000082800000000000030
:102850000C28000000000000142800000000000008
:102860001C28000000000300000000000000000021
:102870000000000000000000000000000000000058
:10288000F026000000000000000000000000000032
:102890000000000000000000000000000000000038
:1028A000F827000098270000F0270000A02700006C
:1028B000B0270000A8270000B8270000C0270000AC
:1028C000C8270000D0270000D8270000E02700001C
:1028D000E82700000090D003000000000000000086
:1028E00000000000000000000000000000000000E8
:1028F00000000000000000000000000000000000D8
:1029000000000000000000000000000000000000C7
:0429100000000000C3
:0400000500000201F4
:00000001FF
